:10025300E4F594F593F592F591F596F595F5B2F5E8
:10026300B1F5B4F5B3F5CAF5C9F5CCF5CBF5E2F5BF
:10027300E17580FF7F04120219E4FF1202190203E1
:010283004139
:10021900EF24FC601114601714601D146023240777
:10022900702753A01F22E5A0541F4480F5A022E5A2
:10023900A0541F44A0F5A022E5A0541F44C0F5A076
:0A02490022E5A0541F44E0F5A022B6
:10034100538E7F5389F0758A18758CFCC28DD28CBF
:05035100D2A9D2AF2289
:04030F00D2A07F05F4
:10031300000000000000000000000000000000AE2C
:06032300071FEE70EB2243
:0F036B00D2A112030FC2A17F05120313C2A02259
:0C037A00C2A112030FD2A17F05020313E1
:02028400AD07C4
:10028600E4FCC2A07F05120313ED30E704D2A1807F
:1002960002C2A17F05120313D2A0ED25E0FD7F0562
:0902A6001203130CBC08DBC2A01A
:0102AF00222C
:1002D500E4FC12030FED25E0FD30A103430501C247
:0C02E500A07F051203130CBC08E8AF0555
:0102F10022EA
:0B02F2001202841202FDAF031202840E
:1002FD0012030FA2A1E433FDC2A07F05120313AFB9
:01030D0005EA
:01030E0022CC
:10032900C2A0EF24FF92A17F0512031312030FC28B
:08033900A0D2A17F050203130D
:10035600AB0712036B7F901202841202FD7F4012DC
:0503660002F202037A1F
:0202B000AB079A
:1002B20012036B7F901202F212036B7F911202847F
:1002C2001202FD1202D5AD077F0112032912037A31
:0202D200AF0576
:0102D4002207
:0500030012025380FE13
:03000B0002000EE2
:10000E00C0E0C0F0C083C082C0D075D000C000C0B8
:0D001E0001C002C003C004C005C006C00739
:10002B00E5452401FFE43544FE7C0B7DB81201311C
:10003B008C448D45AE44AF457C007D01120131ED02
:10004B004C7003120186AE44AF457C017DF4120166
:10005B0031ED4C702A7F031202B08F46E54675F0E6
:10006B00648475F00A8485F03CE54675F00A847566
:0F007B00F00A8485F03DE54675F00A8485F03E75
:10008A00D007D006D005D004D003D002D001D000CA
:0B009A00D0D0D082D083D0F0D0E03274
:1001D600202B093F065B4F666D7D077F6F777C3965
:1001E6005E79710040761E7038375C733E783D67E5
:1001F60050376EBF86DBCFE6EDFD87FFEF46083C46
:1002060000000000000000000834000000000000AC
:020216000000E6
:100186007580FF7F07120219E4FF120219AF08A853
:10019600077401088002C333D8FCF5807F0612027B
:1001A60019E4FF120219743C2508F8E62409F8E65A
:1001B600F4F58074342508F8E6600353807F7F07E2
:0F01C600120219E4FF120219E508045407F508A4
:0101D5002207
:030000000200A556
:0C00A500787FE4F6D8FD7581460200EC7F
:10013100BC000BBE0029EF8DF084FFADF022E4CCB2
:10014100F875F008EF2FFFEE33FEEC33FCEE9DEC7B
:10015100984005FCEE9DFE0FD5F0E9E4CEFD22EDC1
:10016100F8F5F0EE8420D21CFEADF075F008EF2F0B
:10017100FFED33FD4007985006D5F0F222C398FDFC
:050181000FD5F0EA2299
:1000B100020003E493A3F8E493A34003F68001F262
:1000C10008DFF48029E493A3F85407240CC8C33350
:1000D100C4540F4420C8834004F456800146F6DF1F
:1000E100E4800B01020408102040809001D6E47ED8
:1000F100019360BCA3FF543F30E509541FFEE49314
:10010100A360010ECF54C025E060A840B8E493A3DA
:10011100FAE493A3F8E493A3C8C582C8CAC583CA05
:10012100F0A3C8C582C8CAC583CADFE9DEE780BEBD
:0102180000E5
:00000001FF
