:03000000020244B5
:0C024400787FE4F6D8FD75814602028B3D
:10000300E4F594F593F592F591F596F595F5B2F53A
:10001300B1F5B4F5B3F5CAF5C9F5CCF5CBF5E2F511
:10002300E17580FF7F04120476E4FF120476758085
:10003300FF7F06120476E4FF1204767580AF7F0516
:0E004300120476E4FF120476120051D2AF22AE
:10005100538EFB75D71875D6FC438E1043AF04221F
:10047600EF24FC601114601714601D146023240718
:10048600702753A01F22E5A0541F4480F5A022E543
:10049600A0541F44A0F5A022E5A0541F44C0F5A017
:0A04A60022E5A0541F44E0F5A02257
:10051B003F065B4F666D7D077F6F777C395E797128
:10052B000040761E7038375C733E783D6750376EEF
:0B053B00BF86DBCFE6EDFD87FFEF463B
:10043400080E000000000000000008160000000084
:0A044400000000000109FF010BFF9A
:1003A100740E2508F8E624FF9204300411AF08A862
:1003B100077401088002C333D8FC420A8010AF08D9
:1003C100A8077401088002C333D8FCF4520AE50976
:1003D100650A6012E50AF4F5807F04120476E4FFF1
:0D03E100120476850A09E508045407F508A2
:0103EE0022EC
:1004B00030030FA8077401088002C333D8FC420C34
:1004C000800EA8077401088002C333D8FCF4520CD4
:1004D000E50B650C6010850C807F05120476E4FF47
:0604E000120476850C0BEE
:0104E60022F3
:1003EF007580FF7F07120476E4FF120476AF0DA825
:1003FF00077401088002C333D8FCF5807F0612040E
:10040F0076E4FF1204767416250DF8E690051B931B
:10041F00F4F5807F07120476E4FF120476E50D04ED
:04042F005407F50D6C
:0104330022A6
:10044E00073680828486888A8C072F8183858789E8
:10045E008B8D07212D17071507051907280000009A
:04046E00000000008A
:1005CF00E4FEC297EF1392A3EFC313FFD2970EBEB1
:0205DF0008F022
:0105E10022F7
:1005BB00C29300C29700D293001205CFAF0512056C
:0405CB00CFC29322E6
:1004E700E4FDC29300C29700D293001205CFE4FF48
:1004F700C297EDC313FD30A303430580D2970FBF07
:1005070008EEC29300C29700D29700C2A300D2A3FD
:0305170000AF052D
:01051A0022BE
:1005E200EF75F00A84C454F0FEEF75F00A84E5F06A
:0205F2002EFFDA
:0105F40022E4
:0E05F500EFC4540F75F00AA4FEEF540F2EFF52
:0106030022D4
:10059800E4FD7F8E1205BBE4FC74362CF8E6FF748C
:1005A800212CF8E6FD1205BB0CBC07ED7D807F8E83
:0305B8000205BB7E
:10054600E4FC742F2CF8E6FF1204E774282CF8A6B6
:10055600070CBC07EDE4FC74282CF8E6FF1205F541
:0A05660074282CF8A6070CBC07ED62
:010570002268
:060571008B418A42894320
:10057700E4FDAB41AA42A9438D8275830012019C19
:10058700FF1205E274212DF8A6070DBD07E4020549
:0105970098CB
:10006600751EFF751F6375B00FC2C2C2C4A2C292CD
:10007600B6A2C492B7E5B0540FF51EE5451460224A
:1000860014700302015A14700302018C24036003E6
:10009600020199E51E640F7003020199754501027C
:1000A6000199E51EB40F03020155E51E54F0F5B0A3
:1000B600D2C2D2C4A2C292B6A2C492B785B01E75ED
:1000C6004502E51E12021E01017701077B010D7D27
:1000D60001137E0119B7011EBB0123BD0128BE0114
:1000E6002DD70132DB0137DD013CDE0141E7014658
:1000F600EB014BED0150EE00000155754404020181
:1001060099754405020199754406020199754407DB
:10011600020199754408807B754409807675440A06
:10012600807175440B806C75440C806775440D8036
:100136006275440E805D75440F8058754410805377
:10014600754411804E75441280497544138044E409
:10015600F545803FE51E640F6020E5462401FFE477
:1001660033FE7C007DFF1201C98D46E546C39464CB
:100176004021754503E4F5468019E4F54585441F9D
:10018600F544F546800DE51EB40F08E4F5458544B3
:050196001FF544AF1F3E
:01019B002241
:03047200014063E3
:10033B001200031205983001051203A1C20130020D
:10034B00071200668F3FC202300005120546C2003D
:10035B00E53E70E2E5406009E4F540751811751B48
:10036B0011E52A75F00A84F516E52A75F00A8485DD
:10037B00F017E52975F00A84F519E52975F00A845B
:10038B0085F01AE52875F00A84F51CE52875F00A46
:06039B008485F01D80A026
:030063000202D0C6
:1002D000C0E0C0F0C083C082C0D075D000C000C0F4
:0D02E00001C002C003C004C005C006C00775
:1002ED00E53D045407F53D1203EFE53D75F00A8435
:1002FD00E5F07002D201E53D75F00584E5F0700280
:10030D00D202AF3D7E007C027DEE1201C9ED4C7034
:03031D0002D20009
:10032000D007D006D005D004D003D002D001D00031
:0B033000D0D0D082D083D0F0D0E032DB
:1002500002033BE493A3F8E493A34003F68001F286
:1002600008DFF48029E493A3F85407240CC8C333AF
:10027000C4540F4420C8834004F456800146F6DF7E
:10028000E4800B0102040810204080900434E47ED6
:10029000019360BCA3FF543F30E509541FFEE49373
:1002A000A360010ECF54C025E060A840B8E493A33A
:1002B000FAE493A3F8E493A3C8C582C8CAC583CA65
:1002C000F0A3C8C582C8CAC583CADFE9DEE780BE1D
:010475000086
:10019C00BB010CE58229F582E5833AF583E0225018
:1001AC0006E92582F8E622BBFE06E92582F8E22262
:0D01BC00E58229F582E5833AF583E493227C
:1001C900BC000BBE0029EF8DF084FFADF022E4CC1A
:1001D900F875F008EF2FFFEE33FEEC33FCEE9DECE3
:1001E900984005FCEE9DFE0FD5F0E9E4CEFD22ED29
:1001F900F8F5F0EE8420D21CFEADF075F008EF2F73
:10020900FFED33FD4007985006D5F0F222C398FD63
:050219000FD5F0EA2200
:10021E00D083D082F8E4937012740193700DA3A36F
:10022E0093F8740193F5828883E473740293686083
:06023E00EFA3A3A380DF83
:00000001FF
