:03000000020926CC
:0C092600787FE4F6D8FD75815E02096D53
:1009B200E4F594F593F592F591F596F595F5B2F582
:1009C200B1F5B4F5B3F5CAF5C9F5CCF5CBF5E2F559
:1009D200E17580FF7F04120B10E4FF120B1075808B
:1009E200FF7F06120B10E4FF120B107580AF7F051C
:0E09F200120B10E4FF120B10120053D2AF22B2
:10005300538EFB75D71875D6FC438E1043AF04221D
:100B1000EF24FC601114601714601D146023240777
:100B2000702753A01F22E5A0541F4480F5A022E5A2
:100B3000A0541F44A0F5A022E5A0541F44C0F5A076
:0A0B400022E5A0541F44E0F5A022B6
:100BEA003F065B4F666D7D077F6F777C395E797153
:100BFA000040761E7038375C733E783D6750376E1A
:0C0C0A00BF86DBCFE6EDFD87FFEF466301
:10000300080E0000000000000000081600000000B9
:0A001300000000000109FF010BFFCF
:100A0000740E2508F8E624FF9207300711AF08A8F6
:100A1000077401088002C333D8FC420A8010AF0873
:100A2000A8077401088002C333D8FCF4520AE50910
:100A3000650A6012E50AF4F5807F04120B10E4FFEA
:0D0A4000120B10850A09E508045407F5089B
:010A4D002286
:100B4A0030060FA8077401088002C333D8FC420C90
:100B5A00800EA8077401088002C333D8FCF4520C33
:100B6A00E50B650C6010850C807F05120B10E4FF05
:060B7A00120B10850C0BAC
:010B80002252
:100A4E007580FF7F07120B10E4FF120B10AF0DA87D
:100A5E00077401088002C333D8FCF5807F06120BA1
:100A6E0010E4FF120B107416250DF8E6900BEA93A6
:100A7E00F4F5807F07120B10E4FF120B10E50D0446
:040A8E005407F50D07
:010A92002241
:10001D00073680828486888A8C072F81838587891D
:10002D008B8D07212D1707150705190728000000CF
:04003D0000000000BF
:100E1700E4FEC297EF1392A3EFC313FFD2970EBE60
:020E270008F0D1
:010E290022A6
:100E0300C29300C29700D29300120E17AF05120EC1
:040E130017C293224D
:100BB600E4FDC29300C29700D29300120E17E4FF21
:100BC600C297EDC313FD30A303430580D2970FBF31
:100BD60008EEC29300C29700D29700C2A300D2A328
:030BE60000AF0558
:010BE90022E9
:100E2A00EF75F00A84C454F0FEEF75F00A84E5F019
:020E3A002EFF89
:010E3C002293
:0E0E5000EFC4540F75F00AA4FEEF540F2EFFEE
:010E5E002271
:100CDF00E4FD7F8E120E03E4FC74362CF8E6FF74ED
:100CEF00212CF8E6FD120E030CBC07ED7D807F8EE4
:030CFF00020E03DF
:100C4200E4FC742F2CF8E6FF120BB674282CF8A6DD
:100C5200070CBC07EDE4FC74282CF8E6FF120E50DA
:0A0C620074282CF8A6070CBC07ED5F
:010C6C002265
:060C6D008B5C8A5D895ECC
:100C7300E4FDAB5CAA5DA95E8D8275830012030659
:100C8300FF120E2A74212DF8A6070DBD07E4020CEE
:010C9300DF81
:10073E00755CFF755D6375B00FC2C2C2C4A2C29272
:10074E00B6A2C492B7E5B0540FF55CE55A14602218
:10075E001470030208331470030208652403600347
:10076E00020876E55C640F7003020876755A010282
:10077E000876E55CB40F0302082EE55C44F0F5B094
:10078E00D2C2D2C4A2C292B6A2C492B785B05C75D0
:10079E005A02E55C1203DE07D97707DF7B07E57D9A
:1007AE0007EB7E07F1B707F7BB07FCBD0801BE08D4
:1007BE0006D7080BDB0810DD0815DE081AE7081F40
:1007CE00EB0824ED0829EE0000082E7559040208E6
:1007DE007675590502087675590602087675590719
:1007EE00020876755908020876755909807A755986
:1007FE000A807575590B807075590C806B75590D83
:10080E00806675590E806175590F805C7559108020
:10081E00577559118052755912804D75591380486C
:10082E00E4F55A8043E55C640F6020E55B2401FF2C
:10083E00E433FE7C007DFF1203458D5BE55BC394C4
:10084E00644025755A03E4F55B801DE4F55A85591D
:10085E005DF559F55B8011E55CB40F0CE4F55AE5D6
:0A086E00592414F55DE4F559AF5D5F
:01087800225D
:10004100074600000000000000033F000000014DD2
:01005100634B
:100404001209B2E4FF120E3D8F217F01120E3D8FBF
:10041400227F02120E3D8F23120CDF120AD5300206
:1004240005120A00C20220040302053712073E8F98
:1004340042C204E542B40D0CE53E64146006753E08
:1004440014020537E542B4070AE53E045403F53EB9
:10045400020537E53E64146003020537E54224F4DF
:1004640070030204EB14700302050F14603C24FDB6
:10047400602824F070030205322418600302053753
:10048400AF45EF3395E0FEEF2401FFE43EFE7C0030
:100494007D0312039A8D450205371545E545F46041
:1004A40003020537754502020537E545B4021624F3
:1004B40046F8E6FF3395E0FEEF2401FFE43EFE7CC0
:1004C400007D18801674462545F8E6FF3395E0FE56
:1004D400EF2401FFE43EFE7C007D3C12039A744647
:1004E4002545F8A605804C74462545F8167446251E
:1004F40045F8E6F4703DE545B402072446F876175E
:10050400803174462545F8763B80287B007A007953
:1005140046120C6DAD46E4FF120D73AD477F011218
:100524000D73AD487F02120D73120C428000E4F586
:100534003EF545300105120C42C201E53E1470033C
:100544000206391470030206B024EE6058241460C5
:1005540003020422E54D601AE4F54D750E01F50F12
:10056400F510F511F512F513F514F5157518117547
:100574001B11E52A75F00A84F516E52A75F00A843C
:1005840085F017E52975F00A84F519E52975F00A4F
:100594008485F01AE52875F00A84F51CE52875F0C1
:1005A4000A84020633E54D6414601B754D147518F6
:1005B40011751B11E4FF74282FF8E6FE74462FF81A
:1005C400A6060FBF07F030052AE545146013146032
:1005D4001924026003020422751C10751D10020404
:1005E40022751A1075191002042275171075161049
:1005F400020422E54875F00A1202CBF516E54875A7
:10060400F00A1202CB85F017E54775F00A1202CB07
:10061400F519E54775F00A1202CB85F01AE546751F
:10062400F00A1202CBF51CE54675F00A1202CB85DE
:10063400F01D020422200003020422C200E4F50E8D
:10064400750F01F510F511F512F513F514F515E50F
:100654004D64016012754D017516097517117518F1
:1006640011751911751A117F01120DD98F4EE54EAE
:1006740075F0648475F00A8485F03FE54E75F00AE0
:100684008475F00A8485F040E54E75F00A8485F09F
:1006940041E4FF743F2FF8E6700676110FBF02F3B2
:1006A400853F1B85401C85411D0204222003030253
:1006B4000422C203E54D64026021754D02E4F50E87
:1006C400F50F751001F511F512F513F514F51575FF
:1006D4001602751710751C2B751D0C120AD5E4FB38
:1006E400FA79C8784212006612024A8E438F447C1B
:1006F400037DE81203457C007D0A1203458D18AE84
:1007040043AF447C007D641203457C007D0A1203E0
:1007140045ED2420F519AE43AF447C007D0A120355
:10072400457C007D0A1203458D1AAE43AF447C001C
:0A0734007D0A1203458D1B0204220A
:0300630002087917
:10087900C0E0C0F0C083C082C0D075D000C000C045
:0D08890001C002C003C004C005C006C007C6
:10089600E53D2401FFE433FE7C757D301203458D72
:1008A6003D120A4EE53D75F00A84E5F07002D2026B
:1008B600E53D75F00584E5F07002D204E53DFB7A6E
:1008C600007C027DEEFF7E00120345ED4C7002D2E5
:1008D600017C137D88AF03AE02120345ED4C700E0A
:1008E600E53EB41409300504C2058002D205AF3DC9
:1008F6007E007C037DE8120345ED4C7002D200EDCC
:050906004C7002D20359
:10090B00D007D006D005D004D003D002D001D00040
:0B091B00D0D0D082D083D0F0D0E032EA
:040D5900D2A07F05A0
:100D5D00000000000000000000000000000000AED8
:060D6D00071FEE70EB22EF
:080E6E007FB07E15DEFEDFFC03
:010E76002259
:0F0E5F00D2A1120D59C2A17F05120D5DC2A022B2
:100D3D00120C16120CCD120D20AD077F01120DC134
:0C0D4D00C2A1120D59D2A17F05020D5D5C
:020C1600AD0728
:100C1800E4FCC2A07F05120D5DED30E704D2A1808F
:100C280002C2A17F05120D5DD2A0ED25E0FD7F0572
:090C3800120D5D0CBC08DBC2A02A
:010C41002290
:100D2000E4FC120D59ED25E0FD30A103430501C29D
:0C0D3000A07F05120D5D0CBC08E8AF05AB
:010D3C002294
:100CBB00AB05120E5F7FA0120C16120CCDAF0312F8
:020CCB000C1605
:100CCD00120D59A2A1E433FDC2A07F05120D5DAF37
:010CDD000511
:010CDE0022F3
:100DC100C2A0EF24FF92A17F05120D5D120D59C241
:080DD100A0D2A17F05020D5D17
:020E3D00AB0701
:100E3F00120CBD120E5F7FA1120D3D120E6EAF058B
:010E4F002280
:100D7300AB05AA07120E5F7FA0120C16120CCDAFA3
:0A0D830002120CC2120D4D020E6E9A
:100B81008B4F8A508951120CBBAF531553EF601F25
:100B9100AB4F0551E551AA507002055014F91202EC
:100BA100EDFF120C16120CCD7FC8120D5D80DA120A
:050BB1000D4D020E6E67
:100A93008B548A558956120CBB120E5F7FA1120C20
:100AA30016120CCDAF581558EF6024120D20AB541D
:100AB3000556E556AA557002055514F9EF1203338E
:100AC300E5586004E4FF80027F01120DC180D50266
:020AD3000D4DC7
:020DD900AB0766
:100DDB00120E5F7F90120CC2120E5F7F91120D3DAF
:020DEB00AF0552
:010DED0022E3
:100DEE00AB07120E5F7F91120C16120CCD7F4012C4
:050DFE000CC2020D4DC6
:040D8D007F057E0060
:100D9100EF1FAA0670011E4A600BE4FDEDC3940C1F
:050DA10050EE0D80F78B
:010DA600222A
:020D0200A9073F
:100D0400E4FBC294E9139294120D8DD294E9C313B7
:0C0D1400F90BBB08ED7F057E00020D917D
:100DA700E4FBC294ECC313FCD29430940343048055
:090DB700120D8D0BBB08EBAF041B
:010DC0002210
:100C9400C207D2947F0C7E00120D91C2947F507EC5
:100CA40000120D91D2947F0A7E00120D91A29492AB
:060CB40007120D8DA207DE
:010CBA002217
:100AD500120C947FCC120D027F44120D027FC87E4A
:100AE50000120D91120C947FCC120D027FBE120DD7
:100AF50002120DA7A907120DA7EFAD01FCEC12021A
:0B0B050011E4FBFA7980784102016FD7
:10006600EC4D6011E8497017ED33EC3304600DE494
:10007600FCFFFEFD22E933E8330470F80202B612F3
:10008600028158046009E4CC2481500628500902F4
:1000960002C02840030202BDC0E0EB4A7044B980AA
:1000A60006D0E0FB0202ACEF4E701CBD8008EBFFF1
:1000B600EAFEE9FD80EBE98DF0A4FEE5F002014FD2
:1000C600E9CDF9EAFEEBFFEF89F0A4FCE5F0CE8975
:1000D600F0A42EFFE435F0CD89F0A42DFEE435F032
:1000E6008067EF4E7005BD80D780C3EF8BF0A4AC60
:1000F600F0EE8BF0A42CFCE435F0F8EF8AF0A42C9B
:10010600E5F038FCE433CB8DF0A42CFCE5F03BF8AD
:10011600EE8AF0A42CFCE5F038F8E433CF89F0A49D
:100126002CFCE5F038CF3400CE89F0A42FFFE5F0A3
:100136003EFEE433C98DF0A42EFEE5F039CD8AF0FB
:10014600A42FFFE5F03EFEE43DFD33D0E0FB500773
:100156000BBB000F0202C0EC2CFCEF33FFEE33FEAC
:06016600ED33FD020298DA
:10016C000202C0EC5D046005E8590470030202B69B
:10017C00120281580460F6EC4860F2EC7004FDFE4B
:10018C00FF22C860DB2481C85009C3986002500666
:10019C000202BD9850CAF582E9294B4A7005AB8220
:1001AC000202AC75F0007C1A7880C3EF9BEE9AEDDE
:1001BC0099400DC3EF9BFFEE9AFEED99FDE842F0DE
:1001CC00DC23ACF0D0E0FFD0E0FED0E0FDAB822031
:1001DC00E7101BEB60BAEC2CFCEF33FFEE33FEEDBB
:1001EC0033FD020298E803F830E705C0F075F00023
:1001FC00EF2FFFEE33FEED33FD40B830E7C280AA9F
:10020C0075F020800E75F010800575F0087D007E6D
:10021C00007F003392D530D5031203D0EC3340105D
:10022C00EF33FFEE33FEED33FDEC33FCD5F0ED2276
:0E023C00E5F0247EA2D513CC92E7CDCEFF22B2
:10024A00EDD2E7CD33EC3392D524814006E4FFFEAC
:10025A00FDFC22FCE4CFCECDCC24E0501174FF800B
:10026A00EDC3CC13CCCD13CDCE13CECF13CF0470A8
:07027A00F030D5DE0203D0D5
:10028100E9D2E7C933E833F892D5EDD2E7CD33ECC3
:0702910033FC5002B2D5223C
:10029800EC30E7100FBF000C0EBE00080DBD0004C7
:1002A8000BEB6014A2D5EB13FCED92E7FD2274FF73
:1002B800FCFDFEFF22E480F8A2D574FF13FC7D80CC
:0302C800E480EFE0
:10093200020404E493A3F8E493A34003F68001F2D3
:1009420008DFF48029E493A3F85407240CC8C333C6
:10095200C4540F4420C8834004F456800146F6DF95
:10096200E4800B0102040810204080900003E47E22
:10097200019360BCA3FF543F30E509541FFEE4938A
:10098200A360010ECF54C025E060A840B8E493A351
:10099200FAE493A3F8E493A3C8C582C8CAC583CA7C
:1009A200F0A3C8C582C8CAC583CADFE9DEE780BE34
:0100520000AD
:1002CB00C2D530F707B2D563F0FF05F030E70CB2BB
:1002DB00D5F4048463F0FF05F080018430D502F47B
:0202EB000422EB
:1002ED00BB010689828A83E0225002E722BBFE020F
:0902FD00E32289828A83E4932242
:10030600BB010CE58229F582E5833AF583E02250AC
:1003160006E92582F8E622BBFE06E92582F8E222F6
:0D032600E58229F582E5833AF583E4932210
:10033300BB010689828A83F0225002F722BBFE01A9
:02034300F322A3
:10034500BC000BBE0029EF8DF084FFADF022E4CC9C
:10035500F875F008EF2FFFEE33FEEC33FCEE9DEC65
:10036500984005FCEE9DFE0FD5F0E9E4CEFD22EDAB
:10037500F8F5F0EE8420D21CFEADF075F008EF2FF5
:10038500FFED33FD4007985006D5F0F222C398FDE6
:050395000FD5F0EA2283
:10039A00C2D5EC30E709B2D5E4C39DFDE49CFCEE7E
:1003AA0030E715B2D5E4C39FFFE49EFE120345C3AE
:1003BA00E49DFDE49CFC800312034530D507C3E4A9
:0603CA009FFFE49EFE22ED
:0E03D000C3E49FFFE49EFEE49DFDE49CFC223E
:1003DE00D083D082F8E4937012740193700DA3A3AE
:1003EE0093F8740193F5828883E4737402936860C2
:0603FE00EFA3A3A380DFC2
:00000001FF
