:030000000208B142
:0C08B100787FE4F6D8FD75815E0208F83F
:10093D00E4F594F593F592F591F596F595F5B2F5F7
:10094D00B1F5B4F5B3F5CAF5C9F5CCF5CBF5E2F5CE
:10095D00E17580FF7F04120A9BE4FF120A9B7580EC
:10096D00FF7F06120A9BE4FF120A9B7580AF7F057D
:0E097D00120A9BE4FF120A9B120053D2AF2213
:10005300538EFB75D71875D6FC438E1043AF04221D
:100A9B00EF24FC601114601714601D1460232407ED
:100AAB00702753A01F22E5A0541F4480F5A022E518
:100ABB00A0541F44A0F5A022E5A0541F44C0F5A0EC
:0A0ACB0022E5A0541F44E0F5A0222C
:100BA1003F065B4F666D7D077F6F777C395E79719C
:100BB1000040761E7038375C733E783D6750376E63
:0B0BC100BF86DBCFE6EDFD87FFEF46AF
:10000300080E0000000000000000081600000000B9
:0A001300000000000109FF010BFFCF
:10098B00740E2508F8E624FF9207300711AF08A86C
:10099B00077401088002C333D8FC420A8010AF08E9
:1009AB00A8077401088002C333D8FCF4520AE50986
:1009BB00650A6012E50AF4F5807F04120A9BE4FFD6
:0D09CB00120A9B850A09E508045407F50887
:0109D80022FC
:100AD50030060FA8077401088002C333D8FC420C06
:100AE500800EA8077401088002C333D8FCF4520CA9
:100AF500E50B650C6010850C807F05120A9BE4FFF1
:060B0500120A9B850C0B97
:010B0B0022C7
:1009D9007580FF7F07120A9BE4FF120A9BAF0DA8DF
:1009E900077401088002C333D8FCF5807F06120A18
:1009F9009BE4FF120A9B7416250DF8E6900BA19350
:100A0900F4F5807F07120A9BE4FF120A9BE50D04A7
:040A19005407F50D7C
:010A1D0022B6
:10001D00073680828486888A8C072F81838587891D
:10002D008B8D07212D1707150705190728000000CF
:04003D0000000000BF
:100DAF00E4FEC297EF1392A3EFC313FFD2970EBEC9
:020DBF0008F03A
:010DC100220F
:100D9B00C29300C29700D29300120DAFAF05120D94
:040DAB00AFC293221E
:100B4100E4FDC29300C29700D29300120DAFE4FFFF
:100B5100C297EDC313FD30A303430580D2970FBFA6
:100B610008EEC29300C29700D29700C2A300D2A39D
:030B710000AF05CD
:010B7400225E
:100DC200EF75F00A84C454F0FEEF75F00A84E5F082
:020DD2002EFFF2
:010DD40022FC
:0E0DD500EFC4540F75F00AA4FEEF540F2EFF6A
:010DE30022ED
:100C6900E4FD7F8E120D9BE4FC74362CF8E6FF74CC
:100C7900212CF8E6FD120D9B0CBC07ED7D807F8EC3
:030C8900020D9BBE
:100BCC00E4FC742F2CF8E6FF120B4174282CF8A6C9
:100BDC00070CBC07EDE4FC74282CF8E6FF120DD5CD
:0A0BEC0074282CF8A6070CBC07EDD6
:010BF60022DC
:060BF7008B5C8A5D895E43
:100BFD00E4FDAB5CAA5DA95E8D82758300120306D0
:100C0D00FF120DC274212DF8A6070DBD07E4020CCD
:010C1D00696D
:1006CE00755CFF755D6375B00FC2C2C2C4A2C292E3
:1006DE00B6A2C492B7E5B0540FF55CE55A14602289
:1006EE001470030207C31470030207F5240360039A
:1006FE00020806E55C640F7003020806755A0102D3
:10070E000806E55CB40F030207BEE55C44F0F5B0E5
:10071E00D2C2D2C4A2C292B6A2C492B785B05C7540
:10072E005A02E55C1203DE076977076F7B07757D5A
:10073E00077B7E0781B70787BB078CBD0791BE0776
:10074E0096D7079BDB07A0DD07A5DE07AAE707AF55
:10075E00EB07B4ED07B9EE000007BE7559040208A9
:10076E0006755905020806755906020806755907D9
:10077E00020806755908020806755909807A7559D6
:10078E000A807575590B807075590C806B75590DF3
:10079E00806675590E806175590F805C7559108091
:1007AE00577559118052755912804D7559138048DD
:1007BE00E4F55A8043E55C640F6020E55B2401FF9D
:1007CE00E433FE7C007DFF1203458D5BE55BC39435
:1007DE00644025755A03E4F55B801DE4F55A85598E
:1007EE005DF559F55B8011E55CB40F0CE4F55AE547
:0A07FE00592414F55DE4F559AF5DD0
:0108080022CD
:10004100074600000000000000033F000000014DD2
:01005100634B
:1004040012093D120C69120A6030020512098BC2EE
:10041400022004030204FD1206CE8F42C204E54208
:10042400B40403753E01E542B40707E53E045403F2
:10043400F53EE53E640160030204FDE54224F470E8
:10044400030204C61470030204EA14603824FD6035
:100454002824F070030204F8241860030204FDAF9A
:1004640045EF3395E0FEEF2401FFE43EFE7C007D82
:100474000312039A8D450204FD1545E545F4707990
:100484007545028074E545B402162446F8E6FF3348
:1004940095E0FEEF2401FFE43EFE7C007D1880160B
:1004A40074462545F8E6FF3395E0FEEF2401FFE4AA
:1004B4003EFE7C007D3C12039A74462545F8A60551
:1004C400803774462545F81674462545F8E6F470D9
:1004D40028E545B402072446F87617801C7446259F
:1004E40045F8763B80137B007A007946120BF712AD
:1004F4000BCC8000E4F53EF545300105120BCCC26F
:1005040001E53E1460531470030205ED14700302F8
:1005140006522403600302040DE54D6009E4F54D21
:10052400751811751B11E52A75F00A84F516E52A6C
:1005340075F00A8485F017E52975F00A84F519E544
:100544002975F00A8485F01AE52875F00A84F51CEB
:10055400E52875F00A840205E7E54D6401601B7522
:100564004D01751811751B11E4FF74282FF8E6FE70
:1005740074462FF8A6060FBF07F030052AE5451488
:1005840060131460192402600302040D751C1075B5
:100594001D1002040D751A1075191002040D75173B
:1005A4001075161002040DE54875F00A1202CBF519
:1005B40016E54875F00A1202CB85F017E54775F089
:1005C4000A1202CBF519E54775F00A1202CB85F041
:1005D4001AE54675F00A1202CBF51CE54675F00AD9
:1005E4001202CB85F01D02040D20000302040DC28B
:1005F40000E54D64026012754D02751609751711F8
:10060400751811751911751A117F01120CAF8F4EDF
:10061400E54E75F0648475F00A8485F03FE54E7507
:10062400F00A8475F00A8485F040E54E75F00A847A
:1006340085F041E4FF743F2FF8E6700676110FBF92
:1006440002F3853F1B85401C85411D02040D2003D8
:100654000302040DC203E54D6403600F754D037579
:100664001602751710751C17751D0C120A60E4FB31
:10067400FA79C8784212006612024A8E438F447C8B
:10068400037DE81203457C007D0A1203458D18AEF4
:1006940043AF447C007D641203457C007D0A120351
:1006A40045ED2420F519AE43AF447C007D0A1203C6
:1006B400457C007D0A1203458D1AAE43AF447C008D
:0A06C4007D0A1203458D1B02040D90
:0300630002080987
:10080900C0E0C0F0C083C082C0D075D000C000C0B5
:0D08190001C002C003C004C005C006C00736
:10082600E53D2401FFE433FE7C757D301203458DE2
:100836003D1209D9E53D75F00A84E5F07002D20251
:10084600E53D75F00584E5F07002D204E53DFB7ADE
:10085600007C027DEEFF7E00120345ED4C7002D255
:10086600017C137D88AF03AE02120345ED4C70097F
:10087600300504C2058002D205AF3D7E007C037DB3
:10088600E8120345ED4C7002D200ED4C7002D20323
:10089600D007D006D005D004D003D002D001D000B6
:0B08A600D0D0D082D083D0F0D0E03260
:040CEC00D2A07F050E
:100CF000000000000000000000000000000000AE46
:060D0000071FEE70EB225C
:0F0DE400D2A1120CECC2A17F05120CF0C2A0220A
:0C0DF300C2A1120CECD2A17F05020CF092
:020B7500AD07CA
:100B7700E4FCC2A07F05120CF0ED30E704D2A1809F
:100B870002C2A17F05120CF0D2A0ED25E0FD7F0582
:090B9700120CF00CBC08DBC2A03A
:010BA0002232
:060C8C00120B75120C575B
:100C9200E4FC120CECED25E0FD30A103430501C29A
:0C0CA200A07F05120CF00CBC08E8AF05A8
:010CAE002223
:100C4500AB05120DE47FA0120B75120C57AF031202
:020C55000B751D
:100C5700120CECA2A1E433FDC2A07F05120CF0AF89
:010C67000587
:010C68002269
:100D6E00C2A0EF24FF92A17F05120CF0120CECC270
:080D7E00A0D2A17F05020CF0D8
:020D0600AB0739
:100D0800120C47120DE47FA1120C8C8F1E7F01126A
:080D18000D6E120DF302000044
:100D2000AB05AA07120DE47FA0120B75120C57AF8A
:0A0D300002120C4C120DF302000039
:100B0C008B4F8A508951120C45AF531553EF601F10
:100B1C00AB4F0551E551AA507002055014F9120261
:100B2C00EDFF120B75120C577FC8120CF080DA1205
:050B3C000DF3020000B2
:100A1E008B548A558956120C45120DE47FA1120B88
:100A2E0075120C57AF581558EF6024120C92AB5438
:100A3E000556E556AA557002055514F9EF12033303
:100A4E00E5586004E4FF80027F01120D6E80D5022E
:020A5E000DF396
:020CAF00AB0791
:100CB100120DE47F90120C4C120DE47F91120C8CFA
:0C0CC100AD077F01120D6E120DF3AF05A0
:010CCD002204
:100D8600AB07120DE47F91120B75120C577F4012C0
:050D96000C4C020DF3FE
:040D3A007F057E00B3
:100D3E00EF1FAA0670011E4A600BE4FDEDC3940C72
:050D4E0050EE0D80F7DE
:010D5300227D
:020CCE00A90774
:100CD000E4FBC294E9139294120D3AD294E9C3133F
:0C0CE000F90BBB08ED7F057E00020D3E05
:100D5400E4FBC294ECC313FCD294309403430480A8
:090D6400120D3A0BBB08EBAF04C1
:010D6D002263
:100C1E00C207D2947F0C7E00120D3EC2947F507E8E
:100C2E0000120D3ED2947F0A7E00120D3EA29492C7
:060C3E0007120D3AA207A7
:010C4400228D
:100A6000120C1E7FCC120CCE7F44120CCE7FC87E9F
:100A700000120D3E120C1E7FCC120CCE7FBE120C4B
:100A8000CE120D54A907120D54EFAD01FCEC120269
:0B0A900011E4FBFA7980784102016F4D
:10006600EC4D6011E8497017ED33EC3304600DE494
:10007600FCFFFEFD22E933E8330470F80202B612F3
:10008600028158046009E4CC2481500628500902F4
:1000960002C02840030202BDC0E0EB4A7044B980AA
:1000A60006D0E0FB0202ACEF4E701CBD8008EBFFF1
:1000B600EAFEE9FD80EBE98DF0A4FEE5F002014FD2
:1000C600E9CDF9EAFEEBFFEF89F0A4FCE5F0CE8975
:1000D600F0A42EFFE435F0CD89F0A42DFEE435F032
:1000E6008067EF4E7005BD80D780C3EF8BF0A4AC60
:1000F600F0EE8BF0A42CFCE435F0F8EF8AF0A42C9B
:10010600E5F038FCE433CB8DF0A42CFCE5F03BF8AD
:10011600EE8AF0A42CFCE5F038F8E433CF89F0A49D
:100126002CFCE5F038CF3400CE89F0A42FFFE5F0A3
:100136003EFEE433C98DF0A42EFEE5F039CD8AF0FB
:10014600A42FFFE5F03EFEE43DFD33D0E0FB500773
:100156000BBB000F0202C0EC2CFCEF33FFEE33FEAC
:06016600ED33FD020298DA
:10016C000202C0EC5D046005E8590470030202B69B
:10017C00120281580460F6EC4860F2EC7004FDFE4B
:10018C00FF22C860DB2481C85009C3986002500666
:10019C000202BD9850CAF582E9294B4A7005AB8220
:1001AC000202AC75F0007C1A7880C3EF9BEE9AEDDE
:1001BC0099400DC3EF9BFFEE9AFEED99FDE842F0DE
:1001CC00DC23ACF0D0E0FFD0E0FED0E0FDAB822031
:1001DC00E7101BEB60BAEC2CFCEF33FFEE33FEEDBB
:1001EC0033FD020298E803F830E705C0F075F00023
:1001FC00EF2FFFEE33FEED33FD40B830E7C280AA9F
:10020C0075F020800E75F010800575F0087D007E6D
:10021C00007F003392D530D5031203D0EC3340105D
:10022C00EF33FFEE33FEED33FDEC33FCD5F0ED2276
:0E023C00E5F0247EA2D513CC92E7CDCEFF22B2
:10024A00EDD2E7CD33EC3392D524814006E4FFFEAC
:10025A00FDFC22FCE4CFCECDCC24E0501174FF800B
:10026A00EDC3CC13CCCD13CDCE13CECF13CF0470A8
:07027A00F030D5DE0203D0D5
:10028100E9D2E7C933E833F892D5EDD2E7CD33ECC3
:0702910033FC5002B2D5223C
:10029800EC30E7100FBF000C0EBE00080DBD0004C7
:1002A8000BEB6014A2D5EB13FCED92E7FD2274FF73
:1002B800FCFDFEFF22E480F8A2D574FF13FC7D80CC
:0302C800E480EFE0
:1008BD00020404E493A3F8E493A34003F68001F249
:1008CD0008DFF48029E493A3F85407240CC8C3333C
:1008DD00C4540F4420C8834004F456800146F6DF0B
:1008ED00E4800B0102040810204080900003E47E98
:1008FD00019360BCA3FF543F30E509541FFEE49300
:10090D00A360010ECF54C025E060A840B8E493A3C6
:10091D00FAE493A3F8E493A3C8C582C8CAC583CAF1
:10092D00F0A3C8C582C8CAC583CADFE9DEE780BEA9
:0100520000AD
:1002CB00C2D530F707B2D563F0FF05F030E70CB2BB
:1002DB00D5F4048463F0FF05F080018430D502F47B
:0202EB000422EB
:1002ED00BB010689828A83E0225002E722BBFE020F
:0902FD00E32289828A83E4932242
:10030600BB010CE58229F582E5833AF583E02250AC
:1003160006E92582F8E622BBFE06E92582F8E222F6
:0D032600E58229F582E5833AF583E4932210
:10033300BB010689828A83F0225002F722BBFE01A9
:02034300F322A3
:10034500BC000BBE0029EF8DF084FFADF022E4CC9C
:10035500F875F008EF2FFFEE33FEEC33FCEE9DEC65
:10036500984005FCEE9DFE0FD5F0E9E4CEFD22EDAB
:10037500F8F5F0EE8420D21CFEADF075F008EF2FF5
:10038500FFED33FD4007985006D5F0F222C398FDE6
:050395000FD5F0EA2283
:10039A00C2D5EC30E709B2D5E4C39DFDE49CFCEE7E
:1003AA0030E715B2D5E4C39FFFE49EFE120345C3AE
:1003BA00E49DFDE49CFC800312034530D507C3E4A9
:0603CA009FFFE49EFE22ED
:0E03D000C3E49FFFE49EFEE49DFDE49CFC223E
:1003DE00D083D082F8E4937012740193700DA3A3AE
:1003EE0093F8740193F5828883E4737402936860C2
:0603FE00EFA3A3A380DFC2
:00000001FF
