:03000000020515E1
:0C051500787FE4F6D8FD75814E02055C8D
:10000300E4F594F593F592F591F596F595F5B2F53A
:10001300B1F5B4F5B3F5CAF5C9F5CCF5CBF5E2F511
:10002300E17580FF7F0412067FE4FF12067F75806F
:10003300FF7F0612067FE4FF12067F7580AF7F0500
:0E00430012067FE4FF12067F120051D2AF2298
:10005100538EFB75D71875D6FC438E1043AF04221F
:10067F00EF24FC601114601714601D14602324070D
:10068F00702753A01F22E5A0541F4480F5A022E538
:10069F00A0541F44A0F5A022E5A0541F44C0F5A00C
:0A06AF0022E5A0541F44E0F5A0224C
:100724003F065B4F666D7D077F6F777C395E79711D
:100734000040761E7038375C733E783D6750376EE4
:0B074400BF86DBCFE6EDFD87FFEF4630
:1005EF00080E0000000000000000081600000000C8
:0A05FF00000000000109FF010BFFDE
:1005A100740E2508F8E624FF9205300511AF08A85E
:1005B100077401088002C333D8FC420A8010AF08D7
:1005C100A8077401088002C333D8FCF4520AE50974
:1005D100650A6012E50AF4F5807F0412067FE4FFE4
:0D05E10012067F850A09E508045407F50895
:0105EE0022EA
:1006B90030040FA8077401088002C333D8FC420C28
:1006C900800EA8077401088002C333D8FCF4520CC9
:1006D900E50B650C6010850C807F0512067FE4FF31
:0606E90012067F850C0BD8
:0106EF0022E8
:10063A007580FF7F0712067FE4FF12067FAF0DA8C1
:10064A00077401088002C333D8FCF5807F061206BE
:10065A007FE4FF12067F7416250DF8E690072493AF
:10066A00F4F5807F0712067FE4FF12067FE50D048A
:04067A005407F50D1F
:01067E002259
:10060900073680828486888A8C072F81838587892B
:100619008B8D07212D1707150705190728000000DD
:0406290000000000CD
:1007D800E4FEC297EF1392A3EFC313FFD2970EBEA6
:0207E80008F017
:0107EA0022EC
:1007C400C29300C29700D293001207D8AF05120754
:0407D400D8C29322D2
:1006F000E4FDC29300C29700D293001207D8E4FF32
:10070000C297EDC313FD30A303430580D2970FBFFB
:1007100008EEC29300C29700D29700C2A300D2A3F2
:0307200000AF0522
:0107230022B3
:1007EB00EF75F00A84C454F0FEEF75F00A84E5F05F
:0207FB002EFFCF
:0107FD0022D9
:0E07FE00EFC4540F75F00AA4FEEF540F2EFF47
:01080C0022C9
:1007A100E4FD7F8E1207C4E4FC74362CF8E6FF7476
:1007B100212CF8E6FD1207C40CBC07ED7D807F8E6D
:0307C1000207C468
:10074F00E4FC742F2CF8E6FF1206F074282CF8A6A0
:10075F00070CBC07EDE4FC74282CF8E6FF1207FE2B
:0A076F0074282CF8A6070CBC07ED57
:01077900225D
:06077A008B4C8A4D894EF4
:10078000E4FDAB4CAA4DA94E8D827583001203A6E1
:10079000FF1207EB74212DF8A6070DBD07E4020731
:0107A000A1B7
:10024900754CFF754D6375B00FC2C2C2C4A2C2928C
:10025900B6A2C492B7E5B0540FF54CE54A14602232
:1002690014700302033E1470030203702403600335
:10027900020381E54C640F7003020381754A010290
:100289000381E54CB40F03020339E54C44F0F5B0A2
:10029900D2C2D2C4A2C292B6A2C492B785B04C75DA
:1002A9004A02E54C12045E02E47702EA7B02F07D21
:1002B90002F67E02FCB70302BB0307BD030CBE03B3
:1002C90011D70316DB031BDD0320DE0325E7032A11
:1002D900EB032FED0334EE000003397549040203E3
:1002E900817549050203817549060203817549072C
:1002F900020381754908020381754909807A7549A4
:100309000A807575490B807075490C806B75490DAC
:10031900806675490E806175490F805C754910804A
:10032900577549118052754912804D754913804896
:10033900E4F54A8043E54C640F6020E54B2401FF56
:10034900E433FE7C007DFF1203D38D4BE54BC39450
:10035900644025754A03E4F54B801DE4F54A854957
:100369004DF549F54B8011E54CB40F0CE4F54AE520
:0A037900492414F54DE4F549AF4D99
:010383002257
:0C062D00074100000000000000014863CD
:100066001200031207A13001051205A1C2012002E8
:10007600030201631202498F3FC202E53FB4040343
:10008600753E01E53FB40711E53E2401FFE433FE6A
:100096007C007D031203D38D3EE53E6401600302BE
:1000A6000163E53F24F4700302012E14700302017C
:1000B6005214603724FD602724F070030201602487
:1000C600186003020163AF40EF3395E0FEEF2401B1
:1000D600FFE43EFE7C007D031204288D40807E15E1
:1000E60040E540F470777540028072E540B4021630
:1000F6002441F8E6FF3395E0FEEF2401FFE43EFEDF
:100106007C007D18801674412540F8E6FF3395E0A3
:10011600FEEF2401FFE43EFE7C007D3C12042874C1
:10012600412540F8A605803574412540F8167441EE
:100136002540F8E6F47026E540B402072441F87637
:1001460017801A74412540F8763B80117B007A00AF
:10015600794112077A12074F8000E4F53E30000518
:1001660012074FC200E53E14604904600302006CAA
:10017600E5486009E4F548751811751B11E52A75FF
:10018600F00A84F516E52A75F00A8485F017E52944
:1001960075F00A84F519E52975F00A8485F01AE5E3
:1001A6002875F00A84F51CE52875F00A8485F01D8B
:1001B60002006CE5486401601B75480175181175ED
:1001C6001B11E4FF74282FF8E6FE74412FF8A606EB
:1001D6000FBF07F030032AE540146013146019249A
:1001E60002600302006C751C10751D1002006C7510
:1001F6001A1075191002006C75171075161002008A
:100206006CE54375F00A120384F516E54375F00AAA
:1002160012038485F017E54275F00A120384F51976
:10022600E54275F00A12038485F01AE54175F00A75
:10023600120384F51CE54175F00A12038485F01D4E
:0302460002006C47
:0300630002048410
:10048400C0E0C0F0C083C082C0D075D000C000C03E
:0D04940001C002C003C004C005C006C007BF
:1004A100E53D2401FFE433FE7C757D301203D38DDD
:1004B1003D12063AE53D75F00A84E5F07002D2017D
:1004C100E53D75F00584E5F07002D202E53DFB7A69
:1004D100007C027DEEFF7E001203D3ED4C7002D250
:1004E100007C137D88AF03AE021203D3ED4C70097B
:0904F100300304C2038002D203AF
:1004FA00D007D006D005D004D003D002D001D00056
:0B050A00D0D0D082D083D0F0D0E032FF
:10052100020066E493A3F8E493A34003F68001F28A
:1005310008DFF48029E493A3F85407240CC8C333DB
:10054100C4540F4420C8834004F456800146F6DFAA
:10055100E4800B01020408102040809005EFE47E46
:10056100019360BCA3FF543F30E509541FFEE4939F
:10057100A360010ECF54C025E060A840B8E493A366
:10058100FAE493A3F8E493A3C8C582C8CAC583CA91
:10059100F0A3C8C582C8CAC583CADFE9DEE780BE49
:0106390000C0
:10038400C2D530F707B2D563F0FF05F030E70CB201
:10039400D5F4048463F0FF05F080018430D502F4C1
:0203A400042231
:1003A600BB010CE58229F582E5833AF583E022500C
:1003B60006E92582F8E622BBFE06E92582F8E22256
:0D03C600E58229F582E5833AF583E4932270
:1003D300BC000BBE0029EF8DF084FFADF022E4CC0E
:1003E300F875F008EF2FFFEE33FEEC33FCEE9DECD7
:1003F300984005FCEE9DFE0FD5F0E9E4CEFD22ED1D
:10040300F8F5F0EE8420D21CFEADF075F008EF2F66
:10041300FFED33FD4007985006D5F0F222C398FD57
:050423000FD5F0EA22F4
:10042800C2D5EC30E709B2D5E4C39DFDE49CFCEEEF
:1004380030E715B2D5E4C39FFFE49EFE1203D3C391
:10044800E49DFDE49CFC80031203D330D507C3E48C
:060458009FFFE49EFE225E
:10045E00D083D082F8E4937012740193700DA3A32D
:10046E0093F8740193F5828883E473740293686041
:06047E00EFA3A3A380DF41
:00000001FF
