:0300000002000EED
:0C000E00787FE4F6D8FD758120020055D3
:10022E00E4F594F593F592F591F596F595F5B2F50D
:10023E00B1F5B4F5B3F5CAF5C9F5CCF5CBF5E2F5E4
:07024E00E17580FF02029937
:10010900EFB408005061900116F828287302012EF7
:1001190002013202013B02014402014D0201560271
:10012900015F02016853A01F22E5A0541F4420F576
:10013900A022E5A0541F4440F5A022E5A0541F4485
:1001490060F5A022E5A0541F4480F5A022E5A05443
:100159001F44A0F5A022E5A0541F44C0F5A022E544
:08016900A0541F44E0F5A022A0
:10029900538E7F5389F0758A18758CFCC28DD28C68
:0502A900D2A9D2AF2232
:0D02AE00080D000000000000000001080025
:1001C60030050FA8077401088002C333D8FC420823
:1001D600800EA8077401088002C333D8FCF45208C5
:1001E600E50865096012E508F4F5807F0412010947
:0801F600E4FF1201098508096C
:0101FE0022DE
:1001FF00E50BB40115740D250AF87601050AE50A19
:10020F00B4081B750A07E4F50B22740D250AF8E4F0
:0E021F00F6150AE50AB4FF06E4F50A750B01B0
:01022D0022AE
:10027A00740D250CF8E624FF9205AF0C1201C67F17
:0E028A0004120109E4FF120109050C530C07D0
:010298002243
:1002550012022E30040512027AC204300205120180
:10026500FFC202300105120000C2013000E5120094
:0502750000C20080DE64
:03000B0002009A56
:10009A00C0E0C0F0C0D075D000C000C004C005C028
:0300AA0006C00786
:1000AD000516E51670020515AE15FF7C007D0112D3
:1000BD000171ED4C7004D204D200AE15AF167C0068
:1000CD007D64120171ED4C7002D202AE15AF167C3B
:1000DD00037DE8120171ED4C7002D201AE15AF1621
:0B00ED007C0B7DB81201718C158D1684
:1000F800D007D006D005D004D000D0D0D0F0D0E0C2
:0101080032C4
:10001A00020255E493A3F8E493A34003F68001F2A5
:10002A0008DFF48029E493A3F85407240CC8C333E7
:10003A00C4540F4420C8834004F456800146F6DFB6
:10004A00E4800B01020408102040809002AEE47E96
:10005A00019360BCA3FF543F30E509541FFEE493AB
:10006A00A360010ECF54C025E060A840B8E493A372
:10007A00FAE493A3F8E493A3C8C582C8CAC583CA9D
:10008A00F0A3C8C582C8CAC583CADFE9DEE780BE55
:0102BB000042
:10017100BC000BBE0029EF8DF084FFADF022E4CC72
:10018100F875F008EF2FFFEE33FEEC33FCEE9DEC3B
:10019100984005FCEE9DFE0FD5F0E9E4CEFD22ED81
:1001A100F8F5F0EE8420D21CFEADF075F008EF2FCB
:1001B100FFED33FD4007985006D5F0F222C398FDBC
:0501C1000FD5F0EA2259
:00000001FF
