:0300000002000EED
:0C000E00787FE4F6D8FD7581570200559C
:1002F700E4F594F593F592F591F596F595F5B2F544
:10030700B1F5B4F5B3F5CAF5C9F5CCF5CBF5E2F51A
:10031700E1F5807F04120107E4FF1201070203934E
:10010700EFB408005061900114F828287302012CFD
:1001170002013002013902014202014B020154027D
:10012700015D02016653A01F22E5A0541F4420F57C
:10013700A022E5A0541F4440F5A022E5A0541F4487
:1001470060F5A022E5A0541F4480F5A022E5A05445
:100157001F44A0F5A022E5A0541F44C0F5A022E546
:08016700A0541F44E0F5A022A2
:10039300538E7F5389F0758A18758CFCC28DD28C6D
:0503A300D2A9D2AF2237
:10022B000108000109FF080C00000000000000009D
:1002BE0030050FA8077401088002C333D8FC42082A
:1002CE00800EA8077401088002C333D8FCF45208CC
:1002DE00E50865096012E508F4F5807F0412010750
:0802EE00E4FF12010785080975
:0102F60022E5
:10037C00740C250AF8E624FF9205AF0A1202BEE5BA
:06038C000A045407F50A03
:010392002248
:10035400300414740C250BF87601050BE50BB40876
:1003640016750B07C20422740C250BF8E4F6E50B92
:070374007003D20422150BF7
:01037B00225F
:03000B0002009A56
:10009A00C0E0C0F0C0D075D000C000C004C005C028
:0300AA0006C00786
:1000AD000515E51570020514AE14FF7C007D0112D7
:1000BD0001D6ED4C7002D201AE14AF157C007D035C
:1000CD001201D6ED4C7002D200AE14AF157C037D3B
:1000DD00E81201D6ED4C7002D202AE14AF157C0BB6
:0900ED007DB81201D68C148D15AA
:1000F600D007D006D005D004D000D0D0D0F0D0E0C4
:0101060032C6
:100327001202F730000512037CC2003001051202E9
:0E03370079C201300305120354C2033002E5FF
:0D03450012016F8F16C202E51660DAD203B6
:0203520080D653
:10023B00202B253F065B4F666D7D077F6F777C39E3
:10024B005E79710040761E7038375C733E783D677F
:10025B0050376EBF86DBCFE6EDFD87FFEF460850CC
:0D026B0000000000000000000322173B010E
:100279007580FF7F06120107E4FF120107745025FC
:1002890021F8E62425F8E6F4F5807F07120107E452
:10029900FF120107AF21A8077401088002C333D8F0
:1002A900FCF5807F06120107E4FF120107E521042E
:0402B9005407F521D0
:0102BD00221E
:10016F000524E524B43C17E4F5240523E523B43C2A
:10017F000DE4F5230522E522B41803E4F522E52466
:10018F0075F00A8485F057E52475F00A84F55675E5
:10019F005511E52375F00A8485F054E52375F00AAF
:1001AF0084F553755211E52275F00A8485F051E5F7
:1001BF002275F00A84F550E52475F00584E5F0709A
:0701CF00037F01227F0022E3
:10001A00020327E493A3F8E493A34003F68001F2D2
:10002A0008DFF48029E493A3F85407240CC8C333E7
:10003A00C4540F4420C8834004F456800146F6DFB6
:10004A00E4800B010204081020408090022BE47E19
:10005A00019360BCA3FF543F30E509541FFEE493AB
:10006A00A360010ECF54C025E060A840B8E493A372
:10007A00FAE493A3F8E493A3C8C582C8CAC583CA9D
:10008A00F0A3C8C582C8CAC583CADFE9DEE780BE55
:010278000085
:1001D600BC000BBE0029EF8DF084FFADF022E4CC0D
:1001E600F875F008EF2FFFEE33FEEC33FCEE9DECD6
:1001F600984005FCEE9DFE0FD5F0E9E4CEFD22ED1C
:10020600F8F5F0EE8420D21CFEADF075F008EF2F65
:10021600FFED33FD4007985006D5F0F222C398FD56
:050226000FD5F0EA22F3
:00000001FF
