:0300000002000EED
:0C000E00787FE4F6D8FD75815F02005594
:1002DE00E4F594F593F592F591F596F595F5B2F55D
:1002EE00B1F5B4F5B3F5CAF5C9F5CCF5CBF5E2F534
:1002FE00E1F5807F0412026BE4FF12026B02037AB7
:10026B00EF24FC601114601714601D146023240725
:10027B00702753A01F22E5A0541F4480F5A022E550
:10028B00A0541F44A0F5A022E5A0541F44C0F5A024
:0A029B0022E5A0541F44E0F5A02264
:10037A00538E7F5389F0758A18758CFCC28DD28C86
:05038A00D2A9D2AF2250
:10016E000108000109FF080C00000000000000005B
:1002A50030050FA8077401088002C333D8FC420843
:1002B500800EA8077401088002C333D8FCF45208E5
:1002C500E50865096012E508F4F5807F0412026B04
:0802D500E4FF12026B85080929
:0102DD0022FE
:10036300740C250AF8E624FF9205AF0A1202A5E5EC
:060373000A045407F50A1C
:010379002261
:10033B00300414740C250BF87601050BE50BB4088F
:10034B0016750B07C20422740C250BF8E4F6E50BAB
:07035B007003D20422150B10
:010362002278
:03000B0002009A56
:10009A00C0E0C0F0C0D075D000C000C004C005C028
:0300AA0006C00786
:1000AD000515E51570020514AE14FF7C007D0112D7
:1000BD0001C6ED4C7002D201AE14AF157C007D036C
:1000CD001201C6ED4C7002D200AE14AF157C037D4B
:1000DD00E81201C6ED4C7002D202AE14AF157C0BC6
:0900ED007DB81201C68C148D15BA
:1000F600D007D006D005D004D000D0D0D0F0D0E0C4
:0101060032C6
:10030E001202DE300005120363C200300105120234
:0E031E001BC20130030512033BC2033002E58F
:0D032C001201078F16C202E51660DAD20337
:0203390080D66C
:10017E00202B253F065B4F666D7D077F6F777C39A1
:10018E005E79710040761E7038375C733E783D673D
:10019E0050376EBF86DBCFE6EDFD87FFEF46085882
:1001AE0000000000000000000850000000000000E9
:0701BE0000000322173B01C2
:10021B007580FF7F0712026BE4FF12026BAF21A800
:10022B00077401088002C333D8FCF5807F061202E5
:10023B006BE4FF12026B74002521F8E62425F8E627
:10024B00F4F58074502521F8E6600353807F7F0717
:0F025B0012026BE4FF12026BE521045407F52138
:01026A002271
:100107000524E524B43C17E4F5240523E523B43C92
:100117000DE4F5230522E522B41803E4F522E524CE
:1001270075F00A8485F000E52475F00A84F50075FA
:100137000011E52375F00A8485F000E52375F00AC0
:1001470084F500750011E52275F00A8485F000E555
:100157002275F00A84F500E52475F00584E5F07052
:07016700037F01227F00224B
:10001A0002030EE493A3F8E493A34003F68001F2EB
:10002A0008DFF48029E493A3F85407240CC8C333E7
:10003A00C4540F4420C8834004F456800146F6DFB6
:10004A00E4800B010204081020408090016EE47ED7
:10005A00019360BCA3FF543F30E509541FFEE493AB
:10006A00A360010ECF54C025E060A840B8E493A372
:10007A00FAE493A3F8E493A3C8C582C8CAC583CA9D
:10008A00F0A3C8C582C8CAC583CADFE9DEE780BE55
:0101C5000039
:1001C600BC000BBE0029EF8DF084FFADF022E4CC1D
:1001D600F875F008EF2FFFEE33FEEC33FCEE9DECE6
:1001E600984005FCEE9DFE0FD5F0E9E4CEFD22ED2C
:1001F600F8F5F0EE8420D21CFEADF075F008EF2F76
:10020600FFED33FD4007985006D5F0F222C398FD66
:050216000FD5F0EA2203
:00000001FF
