:03000000020101F9
:0C010100787FE4F6D8FD758141020148CA
:060003001202BBD2AF2285
:10022700EF24FC601114601714601D146023240769
:10023700702753A01F22E5A0541F4480F5A022E594
:10024700A0541F44A0F5A022E5A0541F44C0F5A068
:0A02570022E5A0541F44E0F5A022A8
:0F02BB00538EBF75890612000E1202CAD2AF22EF
:0D000E00758AFF758CFFC28DD28CD2A9229D
:0D02CA00758B18758DFCC28FD28ED2AB22C1
:10029A00538EBF758906758B18758DFC758AFF7527
:1002AA008CFFC28FC28DD28ED28CD2A9D2ABD2AFE2
:0102BA002221
:03000B000202D717
:0D02D700C0E0053FE53F7002053ED0E0327B
:03001B0002001EC2
:10001E00C0E0C0F0C083C082C0D075D000C000C0A8
:0D002E0001C002C003C004C005C006C00729
:10003B00E53D2401FFE4353CFE7C1F7D4012018D24
:10004B008C3C8D3DAE3CAF3D7C037DE812018DEDCC
:10005B004C7076853E40853F41F53EF53F7534103B
:10006B00753510753610AE40AF417C277D101201EF
:10007B008D7C007D0A12018D8D37AE40AF417C0324
:10008B007DE812018D7C007D0A12018D8D38AE400A
:10009B00AF417C007D6412018D7C007D0A12018DC5
:1000AB008D39AE40AF417C007D0A12018D7C007D05
:1000BB000A12018D8D3AAE40AF417C007D0A1201D0
:1000CB008D8D3B754000754100AE3CAF3D7C007D96
:0B00DB000112018DED4C70031201E2D8
:1000E600D007D006D005D004D003D002D001D0006E
:0B00F600D0D0D082D083D0F0D0E03218
:0502E40012000380FE82
:1002610008340000000000000000202B093F065B5D
:100271004F666D7D077F6F777C395E7971004076BF
:100281001E7038375C733E783D6750376EBF86DB32
:08029100CFE6EDFD87FFEF460B
:1001E2007580FF7F07120227E4FF120227AF08A8DB
:1001F200077401088002C333D8FCF5807F0612021F
:1002020027E4FF12022774342508F8E62409F8E6E9
:10021200F4F5807F07120227E4FF120227E50804A3
:040222005407F50880
:0102260022B5
:10010D000202E4E493A3F8E493A34003F68001F222
:10011D0008DFF48029E493A3F85407240CC8C333F3
:10012D00C4540F4420C8834004F456800146F6DFC2
:10013D00E4800B0102040810204080900261E47EEF
:10014D00019360BCA3FF543F30E509541FFEE493B7
:10015D00A360010ECF54C025E060A840B8E493A37E
:10016D00FAE493A3F8E493A3C8C582C8CAC583CAA9
:10017D00F0A3C8C582C8CAC583CADFE9DEE780BE61
:010299000064
:10018D00BC000BBE0029EF8DF084FFADF022E4CC56
:10019D00F875F008EF2FFFEE33FEEC33FCEE9DEC1F
:1001AD00984005FCEE9DFE0FD5F0E9E4CEFD22ED65
:1001BD00F8F5F0EE8420D21CFEADF075F008EF2FAF
:1001CD00FFED33FD4007985006D5F0F222C398FDA0
:0501DD000FD5F0EA223D
:00000001FF
